:020000040800F2
:10000000F008002089010008192D0008C92A0008FD
:10001000152D0008FD0500086933000800000000E8
:10002000000000000000000000000000492D000852
:100030005D060008000000001D2D00084B2D000883
:10004000A3010008A3010008A3010008A301000800
:10005000A3010008A30100085F060008A30100082F
:10006000A3010008A3010008A3010008010600087D
:1000700011060008A3010008A3010008A30100085D
:1000800021060008A301000881040008A30100085C
:10009000A3010008A3010008A3010008A3010008B0
:1000A000A3010008A3010008A3010008A3010008A0
:1000B000C52D0008A3010008A3010008A301000842
:1000C000A3010008A3010008A3010008A301000880
:1000D000A3010008A301000859330008A301000888
:1000E000A3010008A3010008A301000800F002F822
:1000F00000F03AF80AA090E8000C82448344AAF188
:100100000107DA4501D100F02FF8AFF2090EBAE885
:100110000F0013F0010F18BFFB1A43F0010318473B
:100120005C4300007C430000103A24BF78C878C1CB
:10013000FAD8520724BF30C830C144BF04680C60ED
:10014000704700000023002400250026103A28BF35
:1001500078C1FBD8520728BF30C148BF0B60704739
:100160001FB51FBD10B510BD00F04FF91146FFF7C8
:10017000F7FF03F09DF900F06DF903B4FFF7F2FF0C
:1001800003BC00F075F900000948804709480047A2
:10019000FEE7FEE7FEE7FEE7FEE7FEE7FEE7FEE737
:1001A000FEE7FEE704480549054A064B7047000094
:1001B000C12D0008ED000008F0020020F00800202A
:1001C000F0040020F0040020B2F120030AD5C2F1AF
:1001D000200320FA02F001FA03F321FA02F140EAC7
:1001E0000300704721FA03F04FF00001704740EA26
:1001F000010370B59B072ED14FF00136042A2AD394
:1002000008C810C99D1B9D43121F15EAC61517D0BB
:10021000D8B2E1B2401A50EA056110D198B2A1B249
:10022000401A50EA05410AD123F07F4024F07F4173
:10023000401A50EA052102D1180EA0EB146070BDDF
:10024000A342DBD018BA21BA884201D9012070BD7F
:100250004FF0FF3070BD0AB9002070BD10F8013BAF
:1002600011F8014B63B1A3420AD1521E08D010F815
:10027000013B11F8014B1BB1A34201D1521EEDD13C
:10028000181B70BD032A40F2308010F0030C00F000
:10029000158011F8013BBCF1020F624498BF11F8C0
:1002A00001CB00F8013B38BF11F8013BA2F1040279
:1002B00098BF00F801CB38BF00F8013B11F00303F1
:1002C00000F02580083AC0F0088051F8043B083A55
:1002D00051F804CBA0E80810F5E7121D5CBF51F8F7
:1002E000043B40F8043BAFF30080D20724BF11F871
:1002F000013B11F801CB48BF11F8012B24BF00F8D6
:10030000013B00F801CB48BF00F8012B704710B546
:10031000203AC0F00B80B1E81850203AA0E81850FD
:10032000B1E81850A0E81850BFF4F5AF5FEA027CBE
:1003300024BFB1E81850A0E8185044BF18C918C02D
:10034000BDE810405FEA827C24BF51F8043B40F8CE
:10035000043B08BF7047D20728BF31F8023B48BFB3
:1003600011F8012B28BF20F8023B48BF00F8012BF1
:1003700070474FF000020429C0F0128010F0030C07
:1003800000F01B80CCF1040CBCF1020F18BF00F888
:10039000012BA8BF20F8022BA1EB0C0100F00DB837
:1003A0005FEAC17C24BF00F8012B00F8012B48BF95
:1003B00000F8012B70474FF0000200B51346944639
:1003C0009646203922BFA0E80C50A0E80C50B1F1AD
:1003D0002001BFF4F7AF090728BFA0E80C5048BFC1
:1003E0000CC05DF804EB890028BF40F8042B08BF5F
:1003F000704748BF20F8022B11F0804F18BF00F85B
:10040000012B7047704770477047754600F02CF815
:10041000AE4605006946534620F00700854618B0F1
:1004200020B5FFF7BFFEBDE820404FF000064FF0BB
:1004300000074FF000084FF0000B21F00701AC4619
:10044000ACE8C009ACE8C009ACE8C009ACE8C00938
:100450008D46704710B50446AFF300802046BDE8D6
:100460001040FFF78ABE000000487047900200204D
:1004700001491820ABBEFEE72600020070470000CD
:1004800010B5024800F05BFA10BD0000A800002083
:1004900070B5044600252068806800F0010018B39C
:1004A0002068806820F001002168886001F014F95C
:1004B000054613E001F010F9401B02280ED9206810
:1004C000806800F0010048B1A06A40F01000A0620E
:1004D000E06A40F00100E062012070BD20688068A1
:1004E00000F001000028E5D10020F6E770B50546D0
:1004F0006C6AA06A00F05000E0B9A06A40F4007095
:10050000A0622068806800F46020B0F5602F0DD1F3
:10051000207B58B9A06A20F48070A062A06A00F421
:10052000805018B9A06A40F00100A062204600F097
:1005300003FA03E0206A016B2846884770BD70B556
:1005400005466C6AA06A40F04000A062E06A40F094
:100550000400E062204600F0F1F970BD70B5044679
:10056000656A284600F0E9F970BD000038B5044618
:100570000025002000902068806800F0010078BB12
:100580002068806840F00100216888601948006890
:100590001949B0FBF1F0009002E00098401E009075
:1005A00000980028F9D101F097F8054619E001F00C
:1005B00093F8401B022814D92068806800F00100DD
:1005C00078B9A06A40F01000A062E06A40F0010033
:1005D000E06200BF002084F8240000BF012038BD85
:1005E00005E02068806800F001000028DFD00020CE
:1005F000F5E700002400002040420F0000BFFEE7A6
:1006000010B5024800F074FC10BD0000D8000020B6
:1006100010B5024800F06CFC10BD00006401002021
:1006200010B5024800F064FC10BD0000EC01002091
:1006300030B590F840500124AC40C56B6C60046844
:1006400063604468102C04D10468A2600468E1600F
:1006500003E00468A1600468E26030BD704710B533
:10066000012000F083FE10BD72B600BFFEE700005F
:100670000021074AD1610749096941F00401054A8F
:1006800011611146096941F0400111617047000094
:1006900070020020002002400021074AD161074972
:1006A000096941F00201054A116111464861096971
:1006B00041F04001116170477002002000200240AB
:1006C0000022054BDA61054A126942F00102034B30
:1006D0001A61018070470000700200200020024073
:1006E00000201E49C96801F0100139B11C49C969CF
:1006F00041F002011A4AD16140F010001749C9685F
:1007000001F0040139B11649C96941F00101144AE7
:10071000D16140F004001149C96901F0010169B1DA
:100720000F49C96941F004010D4AD16100BF0B496D
:10073000C96921F00101094AD16100BF00BF40F23F
:100740000111884206D10549C96921F00101034A16
:10075000D16101E00149C86000BF7047002002403C
:100760007002002070B5044600F0B6FF054609E0AF
:10077000601C38B124B100F0AFFF401BA04201D98A
:10078000032070BD1248C06800F001000028EFD1BE
:100790000F48C06800F0200020B100BF20200C49A5
:1007A000C86000BF0A48C06800F0100048B9084897
:1007B000C06900F0010020B90548C06800F00400DD
:1007C00018B1FFF78DFF0120DBE70020D9E700001B
:1007D000002002407047000038B502460023002088
:1007E000009000BF92F82400012801D1022038BDFA
:1007F000012082F8240000BF4868072812D2106840
:10080000406B0C79641E04EB84051F24AC40A043AC
:100810000D796D1E05EB85050C68AC40204314680E
:10082000606327E048680D2812D21068006B0C79CD
:10083000E41F04EB84051F24AC40A0430D79ED1F99
:1008400005EB85050C68AC4020431468206311E07B
:100850001068C06A0C790D3C04EB84051F24AC4081
:10086000A0430D790D3D05EB85050C68AC40204398
:100870001468E06208680A2812D31068C0680C780F
:100880000A3C04EB44050724AC40A0430D780A3D24
:1008900005EB45058C68AC4020431468E0600FE030
:1008A000106800690C7804EB44050724AC40A043B1
:1008B0000D7805EB45058C68AC4020431468206139
:1008C0000868102802D00868112827D1174C106832
:1008D000A0421ED11068806800F40000F0B91068D2
:1008E000806840F400001468A0600868102815D1E2
:1008F0000F4800680F4CB0FBF4F000EB80004000A4
:10090000009002E00098401E009000980028F9D165
:1009100004E0906A40F020009062012300BF0020B4
:1009200082F8240000BF184661E70000002401405F
:100930002400002040420F0070477047704710B5F8
:1009400004462068406800F0200020282FD120684D
:10095000006800F00200022829D1A06A00F010000F
:1009600018B9A06A40F40070A0622068806800F4A2
:100970006020B0F5602F13D1207B88B920684068D3
:1009800020F0200021684860A06A20F48070A062F6
:10099000A06A00F4805018B9A06A40F00100A0627B
:1009A0002046FFF7C9FF6FF0120021680860206839
:1009B000406800F0800080283BD12068006800F08B
:1009C0000400042835D1A06A00F0100018B9A06A0C
:1009D00040F40050A0622068806800F4E040B0F568
:1009E000E04F0DD02068406800F48060D0B92068E6
:1009F000806800F46020B0F5602F13D1207B88B9A7
:100A00002068406820F0800021684860A06A20F4D7
:100A10008050A062A06A00F4807018B9A06A40F00B
:100A20000100A0622046FFF7D5FE6FF00C002168A0
:100A300008602068406800F0400040280FD120681E
:100A4000006800F0010050B1A06A40F48030A0625C
:100A5000204600F0A7F86FF001002168086010BD83
:100A60002DE9F0410446002700250026A84614B9C8
:100A70000120BDE8F081A06810B1207D00B100BF69
:100A8000A06A30B90020E06284F82400204600F01B
:100A90008BF82046FFF7FCFC0746A06A00F0100028
:100AA000002873D1002F71D1A06A20F4885040F043
:100AB0000200A062E16960680843217B40EA4100CE
:100AC0000643A068B0F5807F02D0A068012802D15B
:100AD0004FF4807000E000200543207D012811D1F3
:100AE000207B38B9A069401E4FF4006141EA4030D4
:100AF000054307E0A06A40F02000A062E06A40F0F1
:100B00000100E0622068406820F4694028432168C1
:100B10004860206880682149084030432168886027
:100B2000A068B0F5807F02D0A068012802D14FF400
:100B3000807000E00020B0F5807F03D1208A401E45
:100B40004FEA00582068C06A20F4700040EA0800AC
:100B50002168C8622068806811490840B04208D105
:100B60000020E062A06A20F0020040F00100A062D4
:100B700011E0A06A20F0020040F01000A062E06ADC
:100B800040F00100E062012705E0FFE7A06A40F0C5
:100B90001000A062012738466BE70000FDF7E1FF77
:100BA000FE0E1FFF7047000010B586B004460020FF
:100BB000029003900490059026492068884246D10F
:100BC00000BF2548806940F40070234988610846C9
:100BD000806900F40070019000BF00BF00BF0846AC
:100BE000806940F0040088610846806900F00400D4
:100BF000019000BF00BF202002900320039002A9B3
:100C0000164800F0C1FB16481649086000204860ED
:100C10000021144881608021C16049000161890080
:100C20004161202181610021C16100F02FFA08B1EA
:100C3000FFF71AFD00BF0B482062446200BF00228C
:100C40001146122000F0CEFD122000F0BBFD06B0D0
:100C500010BD0000002401400010024000080140C7
:100C600008000240D80000202DE9F04104460D465E
:100C70001646002757492068884203D05649206805
:100C8000884205D15348001D006800F4702000E040
:100C9000002000287ED100BF94F82400012802D152
:100CA0000220BDE8F081012084F8240000BF204626
:100CB000FFF75CFC0746002F6DD1A06A40F601618A
:100CC000884340F48070A06243492068884209D17B
:100CD0004048001D006800F4702008B9012002E0BF
:100CE000002000E0012078B1A06A20F48010A0620A
:100CF0002068406800F4806000B3A06A20F40050CF
:100D000040F48050A06219E0A06A40F48010A06214
:100D100030492068884203D02F492068884205D195
:100D20002C48001D006800F4806000E0002028B11D
:100D3000A06A20F4005040F48050A062A06A00F441
:100D4000805020B1E06A20F00600E06201E000205F
:100D5000E06200BF002084F8240000BF1F48216A21
:100D600088621F48216AC8621E48216A08636FF0C2
:100D70000200216808602068806840F48070216863
:100D80008860226802F14C0133462A46206A00F04E
:100D9000B1F901E01AE014E02068806800F46020F6
:100DA000B0F5602F06D12068806840F4A00021686B
:100DB00088600CE02068806840F4801021688860BA
:100DC00005E000BF002084F8240000E00127384639
:100DD00067E700000024014000280140ED040008FE
:100DE0005D0500083F0500080146002291F821003A
:100DF000022808D00420886300BF002081F820006A
:100E000000BF012070470868006820F00E000B68E2
:100E100018600868006820F001000B68186091F8FD
:100E2000403001209840CB6B5860012081F82100B0
:100E300000BF002081F8200000BF1046E2E700005C
:100E400070B50446002594F82100022803D0042040
:100E5000A063012548E02068006820F00E002168AA
:100E600008602068006820F00100216808601F49C0
:100E70002068884201D1012026E01C4914312068F5
:100E8000884201D110201FE018492831206888428B
:100E900001D1801518E015493C312068884201D104
:100EA000801411E0114950312068884202D14FF47A
:100EB000803009E00D4964312068884202D14FF446
:100EC000801001E04FF08070084908394860012027
:100ED00084F8210000BF002084F8200000BF606B70
:100EE00010B12046616B8847284670BD080002405B
:100EF00070B50446E06B05682068066894F84010F9
:100F0000042088402840002846D006F0040000282D
:100F100042D02068006800F0200028B920680068EE
:100F200020F004002168086057492068884201D1F8
:100F3000042027E0544914312068884201D1402020
:100F400020E0514928312068884201D1001519E07C
:100F50004D493C312068884202D14FF4804011E075
:100F6000494950312068884202D14FF4802009E07D
:100F7000454964312068884202D14FF4800001E085
:100F80004FF08060404908394860E06A00287AD014
:100F90002046E16A884776E094F8401002208840B5
:100FA0002840A0B306F0020088B32068006800F073
:100FB000200040B92068006820F00A00216808601D
:100FC000012084F8210030492068884201D10220A4
:100FD00028E02D4914312068884201D1202021E0E9
:100FE000294928312068884201D140151AE0264954
:100FF0003C312068884202D14FF4005012E022496F
:1010000050312068884203D14FF400300AE017E0E5
:101010001D4964312068884202D14FF4001001E07C
:101020004FF0007018490839486000BF002084F86C
:10103000200000BFA06A30B32046A16A884722E0A2
:1010400094F84010082088402840E0B106F00800DD
:10105000C8B12068006820F00E002168086094F88C
:10106000401001208840E16B48600120A06384F8B3
:10107000210000BF002084F8200000BF206B10B1C9
:101080002046216B884770BD0800024001460022BF
:1010900009B901207047164B0868C01A1423B0FB29
:1010A000F3F08000086412480838C863022081F811
:1010B00021000868026843F6F0708243D1E9010319
:1010C0001843CB6818430B6918434B6918438B6965
:1010D0001843CB6918430243086802600020886304
:1010E000012081F82100002081F8200000BFD1E715
:1010F000080002402DE9F04104460D4616461F4601
:101100004FF0000800BF94F82000012802D102200F
:10111000BDE8F081012084F8200000BF94F8210090
:1011200001282CD1022084F821000020A06320682F
:10113000006820F00100216808603B4632462946DD
:101140002046FFF775FAE06A30B12068006840F089
:101150000E00216808600BE02068006820F00400A1
:10116000216808602068006840F00A002168086073
:101170002068006840F001002168086006E000BFB8
:10118000002084F8200000BF4FF002084046BFE76F
:1011900070B5044600F0A0FA06462546681C10B15A
:1011A00004480078054400BF00F096FA801BA8426E
:1011B000FAD370BD200000202DE9F04104460E4610
:1011C0000127002500BF2648007E012802D1022009
:1011D000BDE8F08101202249087600BF206802287E
:1011E00013D14CF25030FFF7BDFA90BB0120FFF74E
:1011F0003FFA4CF25030FFF7B5FA0746194800693C
:1012000020F004001749086123E04CF25030FFF74A
:10121000A9FAF0B94FF0FF303060A56812E0284617
:10122000FFF73AFA4CF25030FFF79CFA07460D48A8
:10123000006920F002000B4908610FB1356007E03A
:1012400005F58065D4E9021001EB8020A842E6D8BC
:1012500000BF00BF00200249087600BF3846B7E74C
:1012600070020020002002400148C0697047000061
:10127000700200200348006940F0800001490861C5
:1012800000207047002002402DE9FE4F05468B46A6
:1012900017469846012600240020029000BF2448EB
:1012A000007E012802D10220BDE8FE8F01202049E6
:1012B000087600BF4CF25030FFF754FA064686BB62
:1012C000012D02D10120029006E0022D02D1022060
:1012D000029001E00420029000241EE02201B946A1
:1012E000C24648465146FEF76FFF80B20190022089
:1012F00000FB04B000900199FFF7E2F94CF2503086
:10130000FFF730FA06460B48006920F00100094952
:10131000086106B104E0601CC4B202988442DDDBBF
:1013200000BF00BF00200249087600BF3046BBE77F
:10133000700200200020024000200849096901F0E5
:10134000800151B10649054A516006495160114674
:10135000096901F0800101B10120704700200240BD
:1013600023016745AB89EFCD7047000010B50446F7
:1013700004480068204020B1024804602046FFF77E
:10138000F3FF10BD140401402DE9F8470346002285
:1013900094466EE14FF0010808FA02F4D1F800809B
:1013A00008EA0400A0427DD1DFF8DCA2D1F8048075
:1013B000A8EB0A09D0453AD014DCB8F1030F50D09D
:1013C00009DCB8F1000F31D0B8F1010F1CD0B8F131
:1013D000020F49D120E0B8F1110F18D0B8F1120F67
:1013E00042D11EE0B9F5881F25D006DCB9F5803F53
:1013F00020D0B9F5801F37D11AE0B9F5001F18D0F9
:10140000B9F5041F30D117E0D1F80CC02DE0D1F8A8
:101410000C8008F1040C28E0D1F80C8008F1080CCD
:1014200023E0D1F80C8008F10C0C1EE000BF00BFD7
:1014300000BF00BF00BF00BFD1F80880B8F1000FA7
:1014400002D14FF0040C0BE0D1F80880B8F1010F85
:1014500003D14FF0080C1C6102E04FF0080C5C61F6
:1014600003E04FF0000C00E000BF00BFFF2801D8F0
:10147000984601E003F104084646FF2802D84FEAE7
:10148000820803E0A2F108084FEA88084746D6F828
:1014900000804FF00F0909FA07F928EA09080CFA49
:1014A00007F900E088E048EA0908C6F80080D1F8AA
:1014B000048008F08058B8F1805F7DD100BFDFF86C
:1014C000CC81D8F8188048F00108DFF8C091C9F83D
:1014D0001880C846D8F8188008F00108CDF80080B8
:1014E00000BF00BF4FEAB9384FEA920958F82950B7
:1014F0004FEA82784FEA18794FF00F0808FA09F896
:1015000025EA0805DFF88881434502D14FF000083D
:1015100016E0DFF88081434502D14FF001080FE06B
:10152000DFF87481434502D14FF0020808E0DFF88C
:101530006C81434502D14FF0030801E04FF00408ED
:101540004FEA82794FEA197908FA09F848EA05055D
:10155000DFF84C814FEA920948F82950D1F804800D
:1015600008F48038B8F5803F0AD1DFF83881D8F820
:10157000008048EA0008DFF82C91C9F8008009E0F3
:10158000DFF82081D8F8008028EA0008DFF81491FD
:10159000C9F80080D1F8048008F40038B8F5003F9D
:1015A00010D1DFF8008108F10408D8F8008048EA7B
:1015B0000008DFF8F09000E05AE009F10409C9F8EA
:1015C00000800DE0DFF8DC8008F10408D8F8008026
:1015D00028EA0008DFF8CC9009F10409C9F8008076
:1015E000D1F8048008F48018B8F5801F0ED1DFF818
:1015F000B48008F10808D8F8008048EA0008DFF84D
:10160000A49009F10809C9F800800DE0DFF8948082
:1016100008F10808D8F8008028EA0008DFF884906C
:1016200009F10809C9F80080D1F8048008F400180D
:10163000B8F5001F0ED1DFF86C8008F10C08D8F85F
:10164000008048EA0008DFF85C9009F10C09C9F84D
:1016500000800DE0DFF84C8008F10C08D8F800801D
:1016600028EA0008DFF83C9009F10C09C9F800806D
:10167000521CD1F8008028FA02F8B8F1000F7FF46C
:1016800089AEBDE8F887000000001110001002408C
:1016900000080140000C014000100140001401400E
:1016A0000800014000040140024693680B400BB162
:1016B000012000E00020704710B5C26821EA020353
:1016C00002EA010443EA0443036110BD0AB1016167
:1016D00001E00B0403617047014800687047000097
:1016E00018000020034800680349097808440149AC
:1016F00008607047180000202000002010B508483E
:10170000006840F0100006490860032000F0A8F8C7
:101710000F2000F007F800F02BF8002010BD0000AB
:101720000020024070B504460E4800784FF47A71EC
:10173000B1FBF0F00C490968B1FBF0F5284600F068
:10174000A3FC08B1012070BD102C07D20022214655
:10175000501E00F047F80548046001E00120F2E760
:101760000020F0E720000020240000201C000020C2
:1017700008B500BF1148806940F001000F49886139
:101780000846806900F00100009000BF00BF00BF64
:101790000846C06940F08050C8610846C06900F042
:1017A0008050009000BF00BF00BF0549486820F08E
:1017B000E06040F00070486000BF08BD00100240CB
:1017C0000000014001460846002809DB00F01F0325
:1017D00001229A4043099B0003F1E023C3F8002152
:1017E00000BF70472DE9F05F80460D461646002782
:1017F00001F0BCFD074639462A46334601F0070092
:10180000C0F1070ABAF1040F02D94FF0040A01E04F
:10181000C0F1070AD14600F1040ABAF1070F02D25B
:101820004FF0000A01E0A0F1030AD4464FF0010A8C
:101830000AFA09FAAAF1010A0AEA020A0AFA0CFAF1
:101840004FF0010B0BFA0CFBABF1010B0BEA030B96
:101850004AEA0B042146404601F090FDBDE8F09FA6
:1018600000BF00F00702064B19684FF6FF0319404E
:10187000044B0B4343EA0221014B196000BF704740
:101880000CED00E00000FA05F8B50446002600253E
:10189000207800F0010000286BD000274348C06981
:1018A00000F0805070B900BF4048C06940F08050DF
:1018B0003E49C8610846C06900F08050009000BFF2
:1018C00000BF01273A48006800F48070B0B938487A
:1018D000006840F4807036490860FFF7FDFE064658
:1018E00006E0FFF7F9FE801B642801D90320F8BD4C
:1018F0002F48006800F480700028F2D02B48006A5E
:1019000000F440752DB3A08800F44070A84220D0A8
:101910002648006A20F4407501202649086000200E
:1019200008602248056205F0010090B1FFF7D4FE7F
:10193000064608E0FFF7D0FE801B41F2883188425E
:1019400001D90320D3E71948006A00F002000028FB
:10195000F0D01648006A20F44070616808431349CB
:101960000862012F04D10846C06920F08050C86188
:1019700000BF207800F00200022807D10B48406821
:1019800020F44040A168084308494860207800F0EE
:101990001000102807D10548406820F48000E16855
:1019A0000843024948600020A1E7000000100240FF
:1019B000007000404004424270B504460D460CB928
:1019C000012070BD5A48006800F00700A8420ED2FE
:1019D0005748006820F0070028435549086008462A
:1019E000006800F00700A84201D00120E9E7207854
:1019F00000F0020002281DD1207800F00400042825
:101A000005D14C48406840F4E0604A49486020787D
:101A100000F00800082805D14648406840F46050AE
:101A2000444948604348406820F0F000A1680843FA
:101A300040494860207800F0010078B360680128D0
:101A400006D13C48006800F4003090B90120B8E7A6
:101A50006068022806D13748006800F0007040B97D
:101A60000120AEE73348006800F0020008B9012009
:101A7000A7E73048406820F00300616808432D491B
:101A80004860FFF729FE064609E0FFF725FE801BA8
:101A900041F28831884202D9032092E707E02548C5
:101AA000406800F00C006168B0EB810FEDD1204878
:101AB000006800F00700A8420ED91D48006820F019
:101AC000070028431A4908600846006800F007002C
:101AD000A84201D0012074E7207800F00400042817
:101AE00007D11448406820F4E060E16808431149D8
:101AF0004860207800F00800082808D10D484068A8
:101B000020F46050216940EAC1000A49486000F0B1
:101B10003FF808494968C1F30311074A515CC840BE
:101B20000649086006480068FFF7FCFD002048E70A
:101B300000200240001002406244000824000020FF
:101B40001C000020014800687047000024000020AD
:101B500000B5FFF7F7FF04494968C1F30221034AC2
:101B6000515CC84000BD00000010024072440008F3
:101B700000B5FFF7E7FF04494968C1F3C221034AF2
:101B8000515CC84000BD00000010024072440008D3
:101B9000F0B585B00FF26C0C9CE8E01001A8A0E84D
:101BA000E0101CA52D6800950021002200230024D0
:101BB0000020194D696801F00C05F5B1042D02D023
:101BC000082D19D101E0154819E001ADC1F3834694
:101BD000AC5D01F4803555B10F4D6D68C5F34045DE
:101BE0001DF805200D4D6543B5FBF2F302E00C4DE9
:101BF00004FB05F3184602E000BF084800BF00BF21
:101C000005B0F0BD02030405060708090A0B0C0D18
:101C10000E0F1010010200000010024000127A00A6
:101C200000093D00F8B504460CB90120F8BD207844
:101C300000F00100002878D0F848406800F00C005F
:101C400004280CD0F548406800F00C00082811D199
:101C5000F248406800F48030B0F5803F0AD1EF4888
:101C6000006800F4003000285FD0606800285CD174
:101C70000120DBE700BF6068B0F5803F06D1E74890
:101C8000006840F48030E549086028E0606858B991
:101C9000E248006820F48030E049086008460068A7
:101CA00020F4802008601AE06068B0F5A02F0BD106
:101CB000DA48006840F48020D84908600846006887
:101CC00040F4803008600AE0D448006820F4803096
:101CD000D24908600846006820F48020086000BFF0
:101CE000606888B1FFF7F8FC054606E0FFF7F4FCF2
:101CF000401B642801D9032098E7C848006800F415
:101D000000300028F2D010E0FFF7E6FC054606E0C0
:101D1000FFF7E2FC401B642801D9032086E7BF4897
:101D2000006800F400300028F2D1207800F00200B2
:101D3000022857D1B948406800F00C0050B1B748AC
:101D4000406800F00C00082818D1B448406800F43E
:101D5000803098B9B148006800F0020020B12069D5
:101D6000012801D0012061E7AC48006820F0F800AC
:101D7000616940EAC100A949086033E02069E8B11F
:101D80000120A7490860FFF7A7FC054606E0FFF71A
:101D9000A3FC401B022801D9032047E79F480068A5
:101DA00000F002000028F2D09C48006820F0F80003
:101DB000616940EAC1009949086013E00020984930
:101DC0000860FFF789FC054606E0FFF785FC401B2D
:101DD000022801D9032029E79048006800F002009A
:101DE0000028F2D1207800F0080008282DD1A06941
:101DF000B8B101208B490860FFF76EFC054606E08C
:101E0000FFF76AFC401B022801D903200EE7834834
:101E1000406A00F002000028F2D0012000F080FFAC
:101E200013E000207F490860FFF756FC054606E0F6
:101E3000FFF752FC401B022801D90320F6E6774841
:101E4000406A00F002000028F2D1207800F004007F
:101E5000042873D100277148C06900F0805070B920
:101E600000BF6E48C06940F080506C49C8610846A8
:101E7000C06900F08050009000BF00BF01276A4891
:101E8000006800F48070B0B96748006840F4807062
:101E900065490860FFF720FC054606E0FFF71CFCDB
:101EA000401B642801D90320C0E65F48006800F4A5
:101EB00080700028F2D000BFE068012806D15748A2
:101EC000006A40F001005549086227E0E06858B90F
:101ED0005248006A20F00100504908620846006A32
:101EE00020F00400086219E0E06805280BD14B4897
:101EF000006A40F00400494908620846006A40F060
:101F0000010008620AE04548006A20F001004349E8
:101F100008620846006A20F00400086200BFE0681A
:101F2000A0B1FFF7D9FB054609E0FFF7D5FB401B41
:101F300041F28831884202D9032077E622E037480F
:101F4000006A00F002000028EFD012E0FFF7C4FBA7
:101F5000054608E0FFF7C0FB401B41F2883188428C
:101F600001D9032062E62D48006A00F00200002833
:101F7000F0D1012F05D12948C06920F080502749B0
:101F8000C86100BFE069C8B32448406800F00C0095
:101F9000082860D0E069022848D10020204908665E
:101FA000FFF79AFB054606E0FFF796FB401B022869
:101FB00001D903203AE61948006800F000700028B3
:101FC000F2D1206AB0F5803F07D11448406820F470
:101FD0000030A168084311494860D4E9080108436A
:101FE0000E49496821F4741108430C4948600120E6
:101FF0000B490866FFF770FB054607E03DE0FFF779
:102000006BFB401B022801D903200FE60348006840
:1020100000F000700028F2D02FE000000010024015
:1020200000004242800442420070004000201449F7
:102030000866FFF751FB054606E0FFF74DFB401B26
:10204000022801D90320F1E50E48006800F0007075
:102050000028F2D111E0E069012800D1E6E5094845
:10206000466806F48031206A814204D106F470117A
:10207000606A814201D00120D8E50020D6E5000049
:10208000000042420010024070B504462546681E1A
:10209000B0F1807F01D301200FE0681E4FF0E021F6
:1020A00048610F214FF0FF3001F068F900204FF038
:1020B000E021886107200861002070BD70477047EB
:1020C00030B502460B4600BF92F83C00012801D112
:1020D000022030BD012082F83C0000BF022082F8BF
:1020E0003D00106844681068816824F07004186826
:1020F000044310684460104D1068A8420BD010686B
:10210000B0F1804F07D00D4D1068A84203D00C4DA0
:102110001068A84205D121F0800158680143106879
:102120008160012082F83D0000BF002082F83C0061
:1021300000BF00BFCDE70000002C014000040040BC
:102140000008004010B504460CB9012010BD94F8F9
:102150003D0028B9002084F83C00204600F026F815
:10216000022084F83D00211D206800F033FE01208C
:1021700084F8460000BF84F83E0001213F2001554D
:10218000402001554120015500BF00BF012084F8C7
:10219000420043200155442001554520015500BF10
:1021A000012084F83D000020D0E7000038B5044647
:1021B0002068B0F1804F31D100BF1948C06940F0AC
:1021C00001001749C8610846C06900F0010000908D
:1021D00000BF00BF13481449086000204860002178
:1021E000114881608021C16049000161890041611D
:1021F000202181610021C161FEF748FF08B1FEF78F
:1022000033FA00BF08482062446200BF0022114632
:102210001C20FFF7E7FA1C20FFF7D4FA38BD0000B6
:10222000001002401C00024064010020014691F8A9
:102230003D00012801D001207047022081F83D00B7
:102240000868C06840F001000B68D860124B08684D
:1022500098420BD00868B0F1804F07D00F4B086848
:10226000984203D00E4B086898420CD108688068E9
:1022700000F00702062A0CD00868006840F0010050
:102280000B68186005E00868006840F001000B6802
:1022900018600020D0E70000002C0140000400403E
:1022A000000800402DE9F04104460D4600BF94F8B7
:1022B0003C00012802D10220BDE8F081012084F811
:1022C0003C0000BF022084F83D002068866826F0AC
:1022D000770626F47F46206886602868502833D029
:1022E0000CDC202850D004DC00284BD0102851D121
:1022F00049E0302849D040284CD139E060282DD021
:10230000702807D0B0F5805F03D0B0F5005F41D1F1
:102310000DE040E0D5E902136A68206800F094FD02
:102320002068866846F077062068866033E0D5E945
:1023300002136A68206800F087FD2068806840F416
:1023400080402168886026E0EA686968206800F0BB
:102350008FFD5021206800F082FD1CE0EA6869686A
:10236000206800F098FD6021206800F078FD12E000
:10237000EA686968206800F07BFD4021206800F071
:102380006EFD08E000BF00BF00BF2968206800F0B4
:1023900066FD00E000BF00BF012084F83D0000BFE3
:1023A000002084F83C0000BF00BF85E7704710B5EF
:1023B000044620680069C0F34000D8B12068C068B6
:1023C000C0F34000B0B16FF0020021680861012045
:1023D00020772068806900F0030018B12046FFF7DD
:1023E000E5FF05E0204600F0ADF8204600F0ABF830
:1023F0000020207720680069C0F38000D8B12068F1
:10240000C068C0F38000B0B16FF0040021680861BB
:10241000022020772068806900F4407018B12046BF
:10242000FFF7C4FF05E0204600F08CF8204600F0DE
:102430008AF80020207720680069C0F3C000D8B176
:102440002068C068C0F3C000B0B16FF00800216818
:102450000861042020772068C06900F0030018B1EB
:102460002046FFF7A3FF05E0204600F06BF820466A
:1024700000F069F80020207720680069C0F30010A0
:10248000D8B12068C068C0F30010B0B16FF0100080
:1024900021680861082020772068C06900F4407036
:1024A00018B12046FFF782FF05E0204600F04AF809
:1024B000204600F048F8002020772068006900F0EE
:1024C000010058B12068C06800F0010030B16FF021
:1024D000010021680861204600F036F82068006994
:1024E000C0F3C01058B12068C068C0F3C01030B14C
:1024F0006FF08000216808612046FFF7DFFD20684B
:102500000069C0F3801058B12068C068C0F3801023
:1025100030B16FF0400021680861204600F01CF8DF
:1025200020680069C0F3401058B12068C068C0F34B
:10253000401030B16FF02000216808612046FFF79D
:10254000BEFD10BD7047704702490988491C014A09
:10255000118070470C0000207047F8B504460E4605
:10256000174694F83E0020282ED106B10FB901205D
:10257000F8BD00BF94F83C00012801D10220F7E724
:10258000012084F83C0000BF20633A4631462046D3
:1025900000F030FE0546ADB9206B012811D100BF17
:1025A000002000902068006800902068406800903B
:1025B00000BF00BF2068C06840F010002168C860FC
:1025C00000E001252846D3E70220D1E770B5054693
:1025D0000C461A49286888422ED181141848FFF702
:1025E0006BF84FF400511648FFF766F84FF480413E
:1025F0001348FFF761F84FF400411148FFF75CF80A
:1026000010490C70084602780F491048FDF77FFE0C
:1026100001200F49087020210B48FDF7CCFE202235
:1026200009490C48FFF799FF0B480068006820F043
:10263000040009490968086070BD000000440040BA
:10264000000C014011000020500200203002002048
:1026500010000020A8010020EC01002070470000BD
:102660002DE9F84F0446206805682068C668206890
:1026700047694FF00009CA4605F00F09B9F1000F8C
:102680000AD105F0200038B106F0200020B1204624
:1026900000F0C0FCBDE8F88FB9F1000F71D007F071
:1026A000010018B906F4907000286AD005F0010006
:1026B00030B106F4807018B1206C40F00100206445
:1026C00005F0040030B107F0010018B1206C40F0B3
:1026D0000200206405F0020030B107F0010018B1DB
:1026E000206C40F00400206405F0080048B106F0BA
:1026F000200010B907F0010018B1206C40F008006C
:102700002064206C68B305F0200028B106F020009A
:1027100010B1204600F07EFC20684069C0F3801AAA
:10272000206C00F0080010B9BAF1000F22D020464A
:1027300000F03BFC2068406900F04000B0B1206828
:10274000406920F0400021684861A06B50B15648B4
:10275000A16B4863A06BFEF773FB10B1A06B416BDC
:1027600088470CE02046FFF779FF08E02046FFF796
:1027700075FF04E02046FFF771FF0020206489E721
:10278000FFE7206B012878D105F01000002874D0F5
:1027900006F01000002870D000BF002000902068D4
:1027A0000068009020684068009000BF00BF20686B
:1027B000406900F04000C0B3A06B006840681FFA99
:1027C00080F8B8F1000F2FD0A08D40452CDDA4F883
:1027D0002E80A06B806920281FD02068C06820F45C
:1027E00080702168C8602068406920F0010021687D
:1027F00048612068406920F040002168486120203D
:1028000084F83E00002020632068C06820F010009B
:102810002168C860A06BFEF7E7FAA08DE28D801AF0
:1028200081B22046FFF7D2FE34E7FFE7A08DE18DAD
:10283000401A1FFA80F8E08DE8B1B8F1000F1AD005
:102840002068C06820F490702168C86020684069E2
:1028500020F0010021684861202084F83E0000201B
:1028600020632068C06820F010002168C8604146DD
:102870002046FFF7ABFE0DE7FFE705F0800030B123
:1028800006F0800018B1204600F000FD02E705F0D8
:10289000400030B106F0400018B1204600F0A0FB27
:1028A000F8E600BFF6E60000BF2E000810B50446AB
:1028B0000CB9012010BDA06900B100E000BF94F880
:1028C0003D0028B9002084F83C00204600F028F89C
:1028D000242084F83D002068C06820F4005021685E
:1028E000C860204600F008FC2068006920F4904091
:1028F000216808612068406920F02A002168486149
:102900002068C06840F400502168C860002020643E
:10291000202084F83D0084F83E000020CAE7000033
:1029200010B586B0044600200290039004900590F4
:102930002A49206888424ED100BF2948C06940F426
:1029400000302749C8610846C06900F40030019092
:1029500000BF00BF00BF0846806940F004008861E6
:102960000846806900F00400019000BF00BF042009
:102970000290022003900320059002A91948FEF757
:1029800003FD0820029000200390049002A915483E
:10299000FEF7FAFC14481549086000204860002141
:1029A000124881608021C160002101614161816123
:1029B000C161FEF76BFB08B1FDF756FE00BF0B4887
:1029C000A063446200BF002211462620FEF70AFFE2
:1029D0002620FEF7F7FE06B010BD000000440040C0
:1029E00000100240000801406C000240EC01002091
:1029F000704770472DE9F84F04460E461746994632
:102A00004FF0000A94F83D0020285AD106B117B9BA
:102A10000120BDE8F88F00BF94F83C00012801D1E7
:102A20000220F6E7012084F83C0000BF002020646B
:102A3000212084F83D00FEF74FFE8246A784E784FC
:102A4000A068B0F5805F04D1206910B90025B046B8
:102A500002E035464FF0000800BF002084F83C003B
:102A600000BF1BE05346002280212046CDF8009095
:102A700000F03CFC08B10320CBE745B9B8F80000F2
:102A8000C0F308002168486008F1020803E02878D4
:102A9000216848606D1CE08C401EE084E08C0028BA
:102AA000E0D15346002240212046CDF8009000F0AE
:102AB0001DFC08B10320ACE7202084F83D00002075
:102AC000A7E70220A5E7704700BFFEE70EB500208C
:102AD00000900190029013481349086000211248A9
:102AE000816001210173002101754FF46021C161F2
:102AF00000200D49486001210B480161FDF7B0FF3E
:102B000008B1FDF7B1FD05200090012001900720DC
:102B1000029069460448FDF75FFE08B1FDF7A4FD89
:102B20000EBD000000240140A800002008B500BF31
:102B30001248406940F00100104948610846406968
:102B400000F00100009000BF00BF002211460B20E2
:102B5000FEF748FE0B20FEF735FE002211460C2042
:102B6000FEF740FE0C20FEF72DFE0022114610203D
:102B7000FEF738FE1020FEF725FE08BD00100240CB
:102B800000B585B00020019002900390049000BF32
:102B90003348806940F00400314988610846806903
:102BA00000F00400009000BF00BF00BF084680692D
:102BB00040F0080088610846806900F00800009035
:102BC00000BF00BF002241F6D2712648FEF77EFD0D
:102BD00000224FF207212448FEF778FD01200190E2
:102BE000224802900120039001A91E48FEF7CCFB69
:102BF00041F6D27001900120029000200390022043
:102C0000049001A91748FEF7BFFB4FF2072001907F
:102C100001200290002003900220049001A9124894
:102C2000FEF7B2FB4FF400400190002002900390A9
:102C300001A90C48FEF7A8FB4FF4FC70019000209E
:102C40000290039001A90848FEF79EFB002211465E
:102C50000620FEF7C7FD0620FEF7B4FD05B000BD57
:102C60000010024000080140000C0140000021104B
:102C700000B587B000200390049005900690019065
:102C800002904FF080401449086041F63F70486060
:102C90000021114881606321C160002101618161CF
:102CA000FFF750FA08B1FDF7DFFC4FF480500390B6
:102CB00003A90948FFF7F6FA08B1FDF7D5FC002093
:102CC0000190029001A90448FFF7FAF908B1FDF755
:102CD000CBFC07B000BD00001C01002010B50B4864
:102CE0000B4908604FF41650486000210848816085
:102CF000C16001610C21416100218161C161FFF767
:102D0000D5FD08B1FDF7B0FC10BD00000044004047
:102D1000A801002000BFFEE700BFFEE770470000EB
:102D200008B508490968C9084FF47A72B1FBF2F195
:102D30004143009100BF00BF00994A1E0092002944
:102D4000F9D108BD24000020704710B5FEF7CAFC79
:102D500010BD00B593B0282109A8FDF72CFB142164
:102D600004A8FDF728FB002000900190029003903A
:102D70000220099001200D9010200E90002010904C
:102D800009A8FEF74FFF08B1FDF76EFC0F20049075
:102D900000200590069007900890002104A8FEF7F7
:102DA0000BFE08B1FDF760FC0220009000200290AD
:102DB0006846FEF769FD08B1FDF756FC13B000BD8B
:102DC0007047000010B50248FFF7F1FA10BD00008F
:102DD0001C01002010B50268184B984208D0B0F1D1
:102DE000804F05D0164B984202D0164B984203D123
:102DF00022F070024B681A43104B984208D0B0F191
:102E0000804F05D00E4B984202D00E4B984203D112
:102E100022F44072CB681A4322F080034C6943EAE3
:102E2000040202608B68C3620B688362034B9842A2
:102E300001D10B6903630123436110BD002C0140E4
:102E4000000400400008004030B50C46816821F4C1
:102E50007F4142EA032525432943816030BD0A466C
:102E6000816821F0700142F00703194381607047C7
:102E700030B50B461446026A056A25F00105056265
:102E8000816921F0F00141EA041122F00A021A439B
:102E90008161026230BD30B50B461446056A25F0EB
:102EA000100505628169026A21F4704141EA04312A
:102EB00022F0A00242EA03128161026230BD70B5C5
:102EC00005466C6A0020E085E0842046FFF7C6FBDB
:102ED00070BD70B506460025746A20684069C0F36D
:102EE000C01594F83D00212805D125B10020E084CB
:102EF000204600F085F820684069C0F3801594F8FA
:102F00003E00222805D125B10020E085204600F0B2
:102F10004CF8206C40F0100020642046FFF79EFB28
:102F200070BD70B505466C6A2868006800F0200026
:102F3000F8B90020E0852068C06820F4807021681E
:102F4000C8602068406920F001002168486120685D
:102F5000406920F0400021684861202084F83E004C
:102F6000206B012805D12068C06820F0100021687E
:102F7000C860206B012804D1A18D2046FFF726FBF5
:102F800002E02046FFF734FD70BD70B505466C6A5F
:102F9000206B012805D1A08D41082046FFF716FBC4
:102FA00002E02046FFF725FD70BD0168C96821F4E5
:102FB00090710268D1600168496921F001010268DD
:102FC0005161016B012905D10168C96821F0100127
:102FD0000268D160202180F83E1000210163704713
:102FE00010B504462068C06820F040002168C86021
:102FF000202084F83D002046FFF765FD002010BD2D
:103000000168C96821F0C0010268D160202180F800
:103010003D107047F8B5044694F83E00222869D167
:10302000A068B0F5805F0CD1206950B90025A66A70
:1030300020684068C0F308003080A06A801CA0624D
:1030400015E0A56A0026A068B0F5805F03D0A068EF
:1030500028B9206918B920684068287004E0206801
:10306000406800F07F002870A06A401CA062E08DDC
:10307000401E80B2E085A8BB2068C06820F0200018
:103080002168C8602068C06820F480702168C8602A
:103090002068406920F0010021684861202084F800
:1030A0003E00206B01281ED1002020632068C068EC
:1030B00020F010002168C8602068006800F010004F
:1030C00010280AD100BF00200090206800680090FE
:1030D00020684068009000BF00BFA18D2046FFF728
:1030E00075FA03E004E02046FFF782FC0020F8BDFB
:1030F0000020FCE70220FAE770B504462168096960
:1031000021F44051E2681143226811612269A168EB
:103110001143626941EA02052168C96841F20C6203
:10312000914329432268D1602168496921F44071A3
:10313000A2691143226851612D4A2168914202D14E
:10314000FEF716FD01E0FEF703FD00EBC00101EB09
:10315000001162689200B1FBF2F100EBC00202EBD9
:10316000001263689B00B2FBF3F26423B2FBF3F23C
:1031700002EBC20303EB0212A1EB8201322202EB4B
:1031800001116422B1FBF2F101F0F00100EBC00289
:1031900002EB001263689B00B2FBF3F26423B2FB04
:1031A000F3F201EB021200EBC00101EB00116368C6
:1031B0009B00B1FBF3F100EBC00303EB0013666867
:1031C000B600B3FBF6F36426B3FBF6F303EBC306DA
:1031D00006EB0313A1EB8301322303EB01116423FC
:1031E000B1FBF3F101F00F0111442268916070BD51
:1031F0000038014077B581B0044615460298A062B8
:10320000A58500202064222084F83E001C48A16B84
:1032100088621C48A16BC8621B48A16B0863002030
:10322000A16B486302AE32682368191D2B46A06B60
:10323000FDF760FF00BF002000902068006800904C
:1032400020684068009000BF00BF00BF002084F8E5
:103250003C0000BF2068C06840F480702168C860EE
:103260002068406940F00100216848612068406999
:1032700040F0400021684861002004B070BD0000AB
:10328000232F00088B2F0008D32E0008014691F849
:103290003D00212828D18868B0F5805F0BD10869EE
:1032A00048B90A6A1088C0F308000B685860086AB9
:1032B000801C086205E00B6A581C086218780B68CD
:1032C0005860C88C401E80B2C88458B90868C0686D
:1032D00020F080000B68D8600868C06840F04000AB
:1032E0000B68D860002070470220FCE72DE9F04110
:1032F00004460D4617469846069E21E0701CF8B11C
:103300002EB1FEF7E9F9A0EB0800B04218D9206809
:10331000C06820F4D0702168C8602068406920F03F
:10332000010021684861202084F83D0084F83E00B7
:1033300000BF002084F83C0000BF0320BDE8F081FE
:10334000206800682840A84201D1012000E0002048
:10335000B842D3D00020F1E710B50248FFF780F95A
:1033600010BD0000A801002000BFFEE70248006871
:10337000C0F30220704700000CED00E010B50028FB
:1033800004DB0A07130E054A135406E00A07140E5D
:10339000034A00F00F031B1FD45410BD00E400E0EB
:1033A00018ED00E070B504460025012608E0012074
:1033B000FDF7EEFE681C85B2A54201DB002605E0A4
:1033C00001210448FEF770F90028F0D000BF304614
:1033D00070BD0000000801402DE9FC4704460D4681
:1033E00016461F46DDE90A894FF0000A032000F067
:1033F0001FF88DF800408DF801508DF802608DF8AF
:1034000003708DF804808DF805900621684600F061
:1034100011FA3220FDF7BCFE41F28830FFF7C2FFFF
:103420008246002000F004F85046BDE8FC8700000A
:1034300010B5044634B1012C0FD0022C18D0032C47
:103440002CD120E0002202211848FEF73FF900228B
:1034500010211648FEF73AF921E001220221134813
:10346000FEF734F9002210211048FEF72FF916E07C
:10347000002202210D48FEF729F9012210210B48F4
:10348000FEF724F90BE0012202210848FEF71EF99D
:10349000012210210548FEF719F900E000BF00BF26
:1034A0003220FDF775FE204610BD000000080140E7
:1034B0001CB5FEF723F9FFF74CFCFFF761FBFFF7A4
:1034C00035FBFFF703FBFFF709FCFFF7D1FB0122F8
:1034D00040211848FEF7FAF8012251021648FEF77B
:1034E000F5F8012215491648FDF7BEFB20221549C3
:1034F0001548FFF732F815480068006820F004000E
:103500001249096808601248FEF790FEC42006219F
:1035100019230122CDE900101146C220FFF75CFFFC
:1035200000224FF400710448FEF7D0F801E000F0EB
:103530007FFBFCE700080140000C01400E0000206A
:10354000A800002050020020A8010020EC0100206B
:103550001C01002001480088704700000E00002078
:103560002DE9F04700240025FFF7F4FF0546284623
:1035700000F022FE8146094900F032FE80464FF0FD
:10358000804100F02DFE0746054900F093FD0646F8
:1035900000F0F2FD84B22046BDE8F08700404E3FC7
:1035A0000000484301480088704700000C000020DC
:1035B000F0B585B005460E46FDF7BEFE0020019031
:1035C000124803900120049000200090694601A851
:1035D000FDF7F2FD18B1FDF747FE05B0F0BD002480
:1035E0000DE02F5D094821183A4600230220FDF71F
:1035F0004BFE10B1FDF738FEEFE7601CC4B2B442D9
:10360000EFDBFDF737FE0020E7E7000000FC0108D4
:10361000014800787047000003000020014800784E
:10362000704700000100002001480078704700004A
:10363000020000200146024A0A4492F8000C70473A
:1036400000F001082DE9F04104460D4620780728D6
:1036500005D020780D2802D04C20BDE8F0812678D6
:103660000027012004E0215C39448FB2411CC8B21C
:10367000B11E8142F7DC701E215CB01E205C41EA65
:103680000028474501D05320E7E7FFF7C7FFA1789F
:10369000884209D1FFF7C8FFE178884204D1FFF7DB
:1036A000B7FF2179884201D04120D6E720782870E1
:1036B00060786870A078A870E078E8702079287148
:1036C00060783C2836D03E282ED0432802D052289D
:1036D00036D114E060796871A079A871E0790006AC
:1036E000217A40EA0140617A40EA0120A17A084348
:1036F000E860207BE17A40EA0120288121E06079BE
:103700006871A079E871E0790006217A40EA014009
:10371000617A40EA0120A17A0843E860207BE17ADF
:1037200040EA012028810CE0A079617940EA01207B
:10373000288106E0A079617940EA0120288100E033
:1037400000BF00BF607888E770B50446002500F030
:1037500059F838B1204600F05DF805462078A842B7
:1037600000D00025284670BD10B503460C46012147
:1037700016484278012C13D106E0481CC1B28818C3
:10378000082801DB002107E0481E104443FA00F03E
:1037900000F001000028F0D000BF5018C0B210BDEA
:1037A00094B905E0481CC1B2914201DB002107E059
:1037B000481C101A43FA00F000F001000028F1D074
:1037C00000BF501AC0B2EAE70020E8E70700002077
:1037D000024601210A48437806E0481CC1B2C818D5
:1037E000082801DB002107E0481E184442FA00F0D7
:1037F00000F001000028F0D000BF481CC0B27047A4
:1038000007000020024908780021014A1170704722
:103810001000002010B504460448027804492046F0
:10382000FCF730FD0148007810BD000011000020B9
:103830003002002070B504460D464FF47A732A46D4
:1038400021460248FFF7D6F870BD0000A80100200D
:1038500010B50020FFF7EEFE00F00F000B490870D6
:10386000002410E009480078204100F0010020B158
:10387000611CC8B200F0A8F803E0611CC8B200F0F7
:1038800007F8601CC4B2042CECDB10BD0000002063
:1038900010B50446012C06D0022C26D0032C46D0AD
:1038A000042C7DD165E0012280214548FDF70EFF03
:1038B0003220FDF76DFC002280214148FDF706FF14
:1038C0000520FDF765FC012211023D48FDF7FEFED3
:1038D0003220FDF75DFC00224FF480713848FDF77F
:1038E000F5FE0520FDF754FC68E00122114635483D
:1038F000FDF7ECFE3220FDF74BFC002201213148A0
:10390000FDF7E4FE0520FDF743FC012251022C489F
:10391000FDF7DCFE3220FDF73BFC00224FF4007186
:103920002748FDF7D3FE0520FDF732FC46E00122D3
:1039300002212448FDF7CAFE3220FDF729FC0022AF
:1039400002212048FDF7C2FE0520FDF721FC0122DF
:1039500091021B48FDF7BAFE3220FDF719FC002248
:103960004FF480611648FDF7B1FE0520FDF710FC0D
:1039700024E0012204211348FDF7A8FE3220FDF7C0
:1039800007FC002204210F48FDF7A0FE0520FDF7EB
:10399000FFFB0122D1020A48FDF798FE322000E029
:1039A0000BE0FDF7F5FB00224FF400610448FDF742
:1039B0008DFE0520FDF7ECFB00E000BF00BF10BD51
:1039C00000080140000C014010B50446012C06D04F
:1039D000022C26D0032C46D0042C7DD165E0012298
:1039E00011024548FDF772FE6420FDF7D1FB00226D
:1039F0004FF480714048FDF769FE6420FDF7C8FB75
:103A0000012280213C48FDF761FE6420FDF7C0FBE8
:103A1000002280213848FDF759FE6420FDF7B8FBED
:103A200068E0012251023448FDF750FE6420FDF7A2
:103A3000AFFB00224FF400712F48FDF747FE6420D2
:103A4000FDF7A6FB012211462C48FDF73FFE64203E
:103A5000FDF79EFB002201212848FDF737FE642078
:103A6000FDF796FB46E0012291022348FDF72EFE6A
:103A70006420FDF78DFB00224FF480611E48FDF7A6
:103A800025FE6420FDF784FB012202211B48FDF77F
:103A90001DFE6420FDF77CFB002202211748FDF784
:103AA00015FE6420FDF774FB24E00122D1021248C8
:103AB000FDF70CFE6420FDF76BFB00224FF4006164
:103AC0000D48FDF703FE6420FDF762FB012204218F
:103AD0000A48FDF7FBFD00E00BE06420FDF758FB12
:103AE000002204210548FDF7F1FD6420FDF750FB9D
:103AF00000E000BF00BF10BD00080140000C014005
:103B000010B50446074804700020FFF793FD00F04D
:103B10000F0004490978884203D001210148FFF7CA
:103B200047FD10BD000000202DE9F04705460E4678
:103B300090469946DDE908A4002710212046FCF7AD
:103B400018FC667084F8028084F8039084F804A05E
:103B50003C2E2DD03E2E28D0432E02D0522E2AD1DC
:103B600011E00D20207068796071A879A071E86873
:103B7000000EE071E868000C2072A889000A6072EB
:103B8000287BA07218E00D20207068796071E879B8
:103B9000A071E868000EE071E868000C2072A88946
:103BA000000A6072287BA07206E00720207003E004
:103BB0000720207000E000BF00BF012004E0215C6E
:103BC00039448FB2411CC8B22178891E8142F6DC8B
:103BD000390A2078801E21542078401E2754BDE8E1
:103BE000F087000070B58AB005460E461446012CD9
:103BF0000BD103A90D48807833462A46CDE9000150
:103C00003C2106A8FFF790FF0BE054B903A9074831
:103C1000807833462A46CDE900013E2106A8FFF709
:103C200083FF6420FDF7B4FA0AB070BD07000020DE
:103C30007FB52021C448FCF7BEFBC348FFF784FDD5
:103C40000446072C7EDB0E2C7CDC00246946BE4833
:103C5000FFF7F8FC054600F017FA432D0ED006DCFE
:103C60003C2D70D03E2D6FD0412D6ED1A6E04C2D55
:103C70006CD0522D4FD0532DF7D19EE0B3489DE824
:103C80004E004EC0B14948790021FFF76DFDB049A3
:103C9000C870AE4948790121FFF766FDAC4908714B
:103CA0000846C0784978884209DAA948C07830B116
:103CB000A74AD17810780022FFF794FF05E0A449C5
:103CC000087800221146FFF78DFF9F480278A1492E
:103CD000FCF78DFAF0B120229B499E48FCF717FBB8
:103CE0009A4880799A494978491E084100F00100B4
:103CF00050B19648C06896494978491E8900C84025
:103D000000F00F009449087093480078FFF7F8FE20
:103D100000F02EF954E091489DE84E004EC08F49C6
:103D200048790121FFF720FD894908718B494879BD
:103D30000021FFF719FD8649C870084600794978C7
:103D4000884204E03EE02BE01DE038E034E008DD8E
:103D50007F48007928B17E4A117910780122FFF757
:103D600041FF7F48007802280CD1774802787D49CE
:103D7000FCF73DFA30B1202273497A48FCF7C7FAC4
:103D800000F028F91CE076480078012807D100F0FF
:103D90008BF90020744908700220714908700FE007
:103DA0006F480078032806D100F07EF900206E49A4
:103DB00008706B49087003E002E001E000E000BF1A
:103DC00000BF00BF6648007830B1012830D002281B
:103DD00056D003287BD17BE0FFF7E4FB1E2826DDCD
:103DE00000F062F920215B48FCF7E5FA20215D48EC
:103DF000FCF7E1FA55480021016041608160C16033
:103E00005648016041608160C160FFF721FD0022DA
:103E10004FF480515548FDF759FC00F045F9012257
:103E200011035248FDF752FC00204F49087089E009
:103E3000FFF7B8FB1E2822DD00F036F94A4800786B
:103E4000032807DA48480078401C4749087000F00A
:103E50008FF814E00020444908703C4840793C4900
:103E60000979491E01228A409043384948714879AE
:103E70000121FFF779FC3649087100F079F861E01B
:103E8000FFF790FB054631494879FFF7A1FC00EBAD
:103E90004000800000EB8000B5EB400F16DD00F025
:103EA00003F90020304908702848407928490979E9
:103EB000491E01228A4090432449487148790121D2
:103EC000FFF752FC2249087100F052F83AE038E05E
:103ED000FFF768FB1E2833DD00F0E6F82248007883
:103EE000032807DA20480078401C1F49087000F0BA
:103EF00071F825E000201C4908701548C078144965
:103F00004978884215DA1248C07890B11348407950
:103F10000F49C978491E01228A4090430F494871D0
:103F200048790021FFF720FC0949C87000F052F8D9
:103F300006E000F0B9F800200B4908700849087045
:103F400000E000BF00BF7FBD2800002088000020E7
:103F500007000020480000200400002098000020F6
:103F60000600002068000020050000200008014035
:103F700000B58BB01348007912494978884214DDA6
:103F80001048007988B103A90E488078CDE9000176
:103F90000C480379027843210B48FFF7C5FD00F078
:103FA00083F801200949087009E04FF4FA70FDF721
:103FB000EFF8054840790649487100F00BF80BB05E
:103FC00000BD00000700002088000020060000203F
:103FD0009800002010B58AB02648007800BBFFF793
:103FE000BFFA40F6B831884201DB012000E0002032
:103FF00004462148C07921494978491E04FA01F153
:1040000008431D49C8710846C0681C494978491EC3
:104010008A001B490978914008431749C86000BFCE
:104020001648C0781549497888420FDA1348C07895
:1040300060B102A911488078CDE900010F48C3782A
:10404000027852210C48FFF76FFD0CE002A90B48E3
:104050008078CDE900010948027800235221064802
:10406000FFF762FD00BF00F01FF80320054908704C
:104070000AB010BD050000209800002007000020B5
:10408000040000200600002010B5FFF7C7FA05491C
:104090000870FFF7C9FA03494870FFF7B9FA0149F8
:1040A000887010BD0700002000200149088070477B
:1040B0000C00002090EA010F48BF81F0004100F1A0
:1040C0006281421A3CBF801A89184FEAD0524FF0E1
:1040D0007F4C1CEA410FA2EBD15318BF9CEA026F40
:1040E00000F03B804FF0004C4CEA00204CEA0121EC
:1040F00021FA03FC10EB0C0C1ED202F1FF325FEA36
:104100001C2040EBC25038BF70471CF07F0F4FEAB5
:10411000400C18BFBCF17F4F38BF7047C3F120037C
:10412000994008BF20F00100BCF17F4F38BF7047B5
:10413000A0F1C04000F01BB94FEA3C00000A40EB80
:10414000C25028BF1CF0FF0F4FEA400CE6D018BF4A
:10415000BCF17F4F38BF7047EAE79CEA026F05D099
:1041600010EA5C0F08BF00F00040704710B500F087
:10417000B8F800BF64FBBE3EC10DD1F19E0206DB64
:104180004FEA002343F0004323FA02F07047004255
:1041900007D54FEA4001B1F1FE4F02D24FF00000C7
:1041A000704710B500F09DF84992248000207047B8
:1041B0006FEA200070470000B0FA80F310FA03F2B3
:1041C000C3F19D030AD0D90501EB1220530638BF75
:1041D000704700F1010008BF20F0010070470000A7
:1041E0004FF47F0C1CEAD0121EBF1CEAD11392EAD6
:1041F0000C0F93EA0C0F00F0478090EA010F48BFC4
:1042000042F480724FF0004C4CEA00204CEA01214D
:1042100002EB0302A0FB0113A2F50002002918BF64
:1042200043F001035B0028BF4FEA330342EB224215
:104230005FEA132C4CEBC2502EBFBCEB436FB2F5C0
:104240007C0F70474FEA036CBCF1004F08BF20F0B1
:104250000100B2F57C0F38BF70470BD582F0FF022A
:1042600012F5803FC8BF704700F1C040D8BF00F0D2
:104270000040704700F5000C5FEA4C0C48BF7047E7
:10428000B0F1C04000F073B890EA010F0CEAD1130E
:1042900048BF42F48072624538BF634504D280EA69
:1042A000010000F00040704710B500F01AF800BFA0
:1042B0008900013E00F007B800F009B85FEA410C40
:1042C0005FEA1C6C08D080EA010000F050B85FEA99
:1042D000400C5FEA1C6CF6D14FF00040A0F5800066
:1042E00070470EF1020E2EF0030E5EF8044B2442CE
:1042F00004D44FEA4102B2F17F4F11D84FEA400394
:10430000B3F17F4F0CD80ED14FEAD07CB2F17F4F82
:104310000CEB4C0C0CF1020C08BF4CEBD17C04E014
:104320004FF0080C01E04FEAD17C0CEB4C0324FA6F
:1043300003F404F00704B4F1040C06D20EEB840C71
:10434000BDE810404CF0010C6047DFE80CF00708B6
:1043500002024FF00040A0F5800010BD0846420068
:1043600018BFD2F1807288BF00F0004010BDFF215D
:1043700041EAD050C005704790EA010F48BF81F074
:1043800000413FF59EAE421A04D882F00042A0EBF5
:10439000020011444FEAD0524FF07F4C1CEA410F0B
:1043A000A2EBD15318BF9CEA026F4AD04FF0004CE9
:1043B0004CEA00204CEA012121FA03FCB0EB0C0C82
:1043C0000FD412F0FE0F36D05FEA4C001DD500125C
:1043D00040EBC25038BF70471CF03F0F18BF70470A
:1043E0000BE0A2F101025FEA1C2040EBC25038BF93
:1043F00070471CF07F0F18BF7047C3F1200399402E
:1044000014BF401E20F00100704780084FEA1223BD
:1044100008BF7047B0FA80FCA2EB0C02CCF1280C6C
:1044200060FA0CF093EA122F04BF00EBC250704701
:104430004FEAC3707047130A5FEADC1008BF704789
:10444000F6E79CEA026F04D010EA5C0F08BF002078
:10445000704710B5FFF745FF40DFF63E81F00040A2
:10446000704700000000000000000102030406077E
:104470000809000000000102030400009C44000839
:10448000000000202800000028010008C4440008A3
:1044900028000020C80800004401000800000000B7
:1044A0000000000000000000000000000000AABBA7
:1044B000CC0000000000000010000000010000001F
:0444C0000024F400E0
:04000005080000ED02
:00000001FF
